{
  "_format": "hh-sol-artifact-1",
  "contractName": "ConutFactoryTemp",
  "sourceName": "contracts/ConutFactoryTemp.sol",
  "abi": [
    {
      "inputs": [],
      "stateMutability": "nonpayable",
      "type": "constructor"
    },
    {
      "anonymous": false,
      "inputs": [
        {
          "indexed": false,
          "internalType": "address",
          "name": "programAddr",
          "type": "address"
        },
        {
          "indexed": false,
          "internalType": "uint256",
          "name": "programId",
          "type": "uint256"
        }
      ],
      "name": "ProgramCreated",
      "type": "event"
    },
    {
      "inputs": [],
      "name": "createProgram",
      "outputs": [
        {
          "internalType": "address",
          "name": "",
          "type": "address"
        }
      ],
      "stateMutability": "payable",
      "type": "function"
    },
    {
      "inputs": [],
      "name": "getPrograms",
      "outputs": [
        {
          "internalType": "address[]",
          "name": "",
          "type": "address[]"
        }
      ],
      "stateMutability": "view",
      "type": "function"
    },
    {
      "inputs": [],
      "name": "lastEndTime",
      "outputs": [
        {
          "internalType": "uint256",
          "name": "",
          "type": "uint256"
        }
      ],
      "stateMutability": "view",
      "type": "function"
    }
  ],
  "bytecode": "0x608060405234801561001057600080fd5b506201518062093a8042610024919061007d565b4261002f91906100dd565b6100399190610111565b600281905550610145565b6000819050919050565b7f4e487b7100000000000000000000000000000000000000000000000000000000600052601260045260246000fd5b600061008882610044565b915061009383610044565b9250826100a3576100a261004e565b5b828206905092915050565b7f4e487b7100000000000000000000000000000000000000000000000000000000600052601160045260246000fd5b60006100e882610044565b91506100f383610044565b925082820390508181111561010b5761010a6100ae565b5b92915050565b600061011c82610044565b915061012783610044565b925082820190508082111561013f5761013e6100ae565b5b92915050565b61192f806101546000396000f3fe6080604052600436106100345760003560e01c80632737705114610039578063455bd8e714610057578063ad4f41ae14610082575b600080fd5b6100416100ad565b60405161004e91906102ea565b60405180910390f35b34801561006357600080fd5b5061006c610208565b60405161007991906103c3565b60405180910390f35b34801561008e57600080fd5b50610097610296565b6040516100a491906103fe565b60405180910390f35b60008034116100f1576040517f08c379a00000000000000000000000000000000000000000000000000000000081526004016100e89061049c565b60405180910390fd5b600034600154336040516101049061029c565b61010f9291906104bc565b6040518091039082f090508015801561012c573d6000803e3d6000fd5b5090506000819080600181540180825580915050600190039060005260206000200160009091909190916101000a81548173ffffffffffffffffffffffffffffffffffffffff021916908373ffffffffffffffffffffffffffffffffffffffff1602179055507ff0744a63e82de7099c803bdbe2c644edcda5cf287ac23a1664c4eef840e05e90816001546040516101c59291906104e5565b60405180910390a1600160008154809291906101e09061053d565b919050555062091e60600260008282546101fa9190610585565b925050819055508091505090565b6060600080548060200260200160405190810160405280929190818152602001828054801561028c57602002820191906000526020600020905b8160009054906101000a900473ffffffffffffffffffffffffffffffffffffffff1673ffffffffffffffffffffffffffffffffffffffff1681526020019060010190808311610242575b5050505050905090565b60025481565b611340806105ba83390190565b600073ffffffffffffffffffffffffffffffffffffffff82169050919050565b60006102d4826102a9565b9050919050565b6102e4816102c9565b82525050565b60006020820190506102ff60008301846102db565b92915050565b600081519050919050565b600082825260208201905092915050565b6000819050602082019050919050565b61033a816102c9565b82525050565b600061034c8383610331565b60208301905092915050565b6000602082019050919050565b600061037082610305565b61037a8185610310565b935061038583610321565b8060005b838110156103b657815161039d8882610340565b97506103a883610358565b925050600181019050610389565b5085935050505092915050565b600060208201905081810360008301526103dd8184610365565b905092915050565b6000819050919050565b6103f8816103e5565b82525050565b600060208201905061041360008301846103ef565b92915050565b600082825260208201905092915050565b7f454455206d7573742062652070726f766964656420746f2066756e642074686560008201527f2070726f6772616d000000000000000000000000000000000000000000000000602082015250565b6000610486602883610419565b91506104918261042a565b604082019050919050565b600060208201905081810360008301526104b581610479565b9050919050565b60006040820190506104d160008301856103ef565b6104de60208301846102db565b9392505050565b60006040820190506104fa60008301856102db565b61050760208301846103ef565b9392505050565b7f4e487b7100000000000000000000000000000000000000000000000000000000600052601160045260246000fd5b6000610548826103e5565b91507fffffffffffffffffffffffffffffffffffffffffffffffffffffffffffffffff820361057a5761057961050e565b5b600182019050919050565b6000610590826103e5565b915061059b836103e5565b92508282019050808211156105b3576105b261050e565b5b9291505056fe608060405260405161134038038061134083398181016040528101906100259190610185565b6001600081905550816001819055503460038190555080600260006101000a81548173ffffffffffffffffffffffffffffffffffffffff021916908373ffffffffffffffffffffffffffffffffffffffff1602179055506000600260146101000a81548160ff0219169083151502179055503373ffffffffffffffffffffffffffffffffffffffff167f543ba50a5eec5e6178218e364b1d0f396157b3c8fa278522c2cb7fd99407d474346040516100dd91906101d4565b60405180910390a250506101ef565b600080fd5b6000819050919050565b610104816100f1565b811461010f57600080fd5b50565b600081519050610121816100fb565b92915050565b600073ffffffffffffffffffffffffffffffffffffffff82169050919050565b600061015282610127565b9050919050565b61016281610147565b811461016d57600080fd5b50565b60008151905061017f81610159565b92915050565b6000806040838503121561019c5761019b6100ec565b5b60006101aa85828601610112565b92505060206101bb85828601610170565b9150509250929050565b6101ce816100f1565b82525050565b60006020820190506101e960008301846101c5565b92915050565b611142806101fe6000396000f3fe6080604052600436106100595760003560e01c806312065fe01461006d5780633ccfd60b14610098578063968ed600146100af578063c0336629146100da578063d0e30db0146100f1578063e476322d146100fb57610068565b3661006857610066610124565b005b600080fd5b34801561007957600080fd5b50610082610226565b60405161008f91906109a5565b60405180910390f35b3480156100a457600080fd5b506100ad61022e565b005b3480156100bb57600080fd5b506100c4610427565b6040516100d191906109a5565b60405180910390f35b3480156100e657600080fd5b506100ef61042d565b005b6100f96104da565b005b34801561010757600080fd5b50610122600480360381019061011d9190610c20565b6104f4565b005b60003411610167576040517f08c379a000000000000000000000000000000000000000000000000000000000815260040161015e90610cc6565b60405180910390fd5b60001515600260149054906101000a900460ff161515146101bd576040517f08c379a00000000000000000000000000000000000000000000000000000000081526004016101b490610d32565b60405180910390fd5b34600360008282546101cf9190610d81565b925050819055503373ffffffffffffffffffffffffffffffffffffffff167f543ba50a5eec5e6178218e364b1d0f396157b3c8fa278522c2cb7fd99407d4743460405161021c91906109a5565b60405180910390a2565b600047905090565b600260009054906101000a900473ffffffffffffffffffffffffffffffffffffffff1673ffffffffffffffffffffffffffffffffffffffff163373ffffffffffffffffffffffffffffffffffffffff16146102be576040517f08c379a00000000000000000000000000000000000000000000000000000000081526004016102b590610e01565b60405180910390fd5b6102c661093c565b60011515600260149054906101000a900460ff1615151461031c576040517f08c379a000000000000000000000000000000000000000000000000000000000815260040161031390610e93565b60405180910390fd5b600047905060003373ffffffffffffffffffffffffffffffffffffffff168260405161034790610ee4565b60006040518083038185875af1925050503d8060008114610384576040519150601f19603f3d011682016040523d82523d6000602084013e610389565b606091505b50509050806103cd576040517f08c379a00000000000000000000000000000000000000000000000000000000081526004016103c490610f45565b60405180910390fd5b3373ffffffffffffffffffffffffffffffffffffffff167feaff4b37086828766ad3268786972c0cd24259d4c87a80f9d3963a3c3d999b0d8360405161041391906109a5565b60405180910390a25050610425610982565b565b60035481565b600260009054906101000a900473ffffffffffffffffffffffffffffffffffffffff1673ffffffffffffffffffffffffffffffffffffffff163373ffffffffffffffffffffffffffffffffffffffff16146104bd576040517f08c379a00000000000000000000000000000000000000000000000000000000081526004016104b490610e01565b60405180910390fd5b6001600260146101000a81548160ff021916908315150217905550565b6104e261093c565b6104ea610124565b6104f2610982565b565b600260009054906101000a900473ffffffffffffffffffffffffffffffffffffffff1673ffffffffffffffffffffffffffffffffffffffff163373ffffffffffffffffffffffffffffffffffffffff1614610584576040517f08c379a000000000000000000000000000000000000000000000000000000000815260040161057b90610e01565b60405180910390fd5b61058c61093c565b60001515600260149054906101000a900460ff161515146105e2576040517f08c379a00000000000000000000000000000000000000000000000000000000081526004016105d990610fb1565b60405180910390fd5b6000805b82518110156106285782818151811061060257610601610fd1565b5b602002602001015160400151826106199190610d81565b915080806001019150506105e6565b5080600354101561066e576040517f08c379a00000000000000000000000000000000000000000000000000000000081526004016106659061104c565b60405180910390fd5b60005b825181101561091457600073ffffffffffffffffffffffffffffffffffffffff168382815181106106a5576106a4610fd1565b5b60200260200101516020015173ffffffffffffffffffffffffffffffffffffffff16146108925760008382815181106106e1576106e0610fd1565b5b60200260200101516020015173ffffffffffffffffffffffffffffffffffffffff1684838151811061071657610715610fd1565b5b60200260200101516040015160405161072e90610ee4565b60006040518083038185875af1925050503d806000811461076b576040519150601f19603f3d011682016040523d82523d6000602084013e610770565b606091505b50509050806107b4576040517f08c379a00000000000000000000000000000000000000000000000000000000081526004016107ab906110b8565b60405180910390fd5b8382815181106107c7576107c6610fd1565b5b60200260200101516020015173ffffffffffffffffffffffffffffffffffffffff163073ffffffffffffffffffffffffffffffffffffffff167fddf252ad1be2c89b69c2b068fc378daa952ba7f163c4a11628f55a4df523b3ef86858151811061083457610833610fd1565b5b60200260200101516040015160405161084d91906109a5565b60405180910390a383828151811061086857610867610fd1565b5b6020026020010151604001516003600082825461088591906110d8565b9250508190555050610907565b8281815181106108a5576108a4610fd1565b5b6020026020010151600001517f20b53e67568642a7682697c610858d1c4b363a6fc798df042d66d5c06e34fd4a8483815181106108e5576108e4610fd1565b5b6020026020010151604001516040516108fe91906109a5565b60405180910390a25b8080600101915050610671565b506001600260146101000a81548160ff02191690831515021790555050610939610982565b50565b600260005403610978576040517f3ee5aeb500000000000000000000000000000000000000000000000000000000815260040160405180910390fd5b6002600081905550565b6001600081905550565b6000819050919050565b61099f8161098c565b82525050565b60006020820190506109ba6000830184610996565b92915050565b6000604051905090565b600080fd5b600080fd5b600080fd5b6000601f19601f8301169050919050565b7f4e487b7100000000000000000000000000000000000000000000000000000000600052604160045260246000fd5b610a22826109d9565b810181811067ffffffffffffffff82111715610a4157610a406109ea565b5b80604052505050565b6000610a546109c0565b9050610a608282610a19565b919050565b600067ffffffffffffffff821115610a8057610a7f6109ea565b5b602082029050602081019050919050565b600080fd5b600080fd5b610aa48161098c565b8114610aaf57600080fd5b50565b600081359050610ac181610a9b565b92915050565b600073ffffffffffffffffffffffffffffffffffffffff82169050919050565b6000610af282610ac7565b9050919050565b610b0281610ae7565b8114610b0d57600080fd5b50565b600081359050610b1f81610af9565b92915050565b600060608284031215610b3b57610b3a610a96565b5b610b456060610a4a565b90506000610b5584828501610ab2565b6000830152506020610b6984828501610b10565b6020830152506040610b7d84828501610ab2565b60408301525092915050565b6000610b9c610b9784610a65565b610a4a565b90508083825260208201905060608402830185811115610bbf57610bbe610a91565b5b835b81811015610be85780610bd48882610b25565b845260208401935050606081019050610bc1565b5050509392505050565b600082601f830112610c0757610c066109d4565b5b8135610c17848260208601610b89565b91505092915050565b600060208284031215610c3657610c356109ca565b5b600082013567ffffffffffffffff811115610c5457610c536109cf565b5b610c6084828501610bf2565b91505092915050565b600082825260208201905092915050565b7f4d7573742073656e6420736f6d65204544550000000000000000000000000000600082015250565b6000610cb0601283610c69565b9150610cbb82610c7a565b602082019050919050565b60006020820190508181036000830152610cdf81610ca3565b9050919050565b7f4974206973206e6f74206120706572696f6420666f72206465706f7369747300600082015250565b6000610d1c601f83610c69565b9150610d2782610ce6565b602082019050919050565b60006020820190508181036000830152610d4b81610d0f565b9050919050565b7f4e487b7100000000000000000000000000000000000000000000000000000000600052601160045260246000fd5b6000610d8c8261098c565b9150610d978361098c565b9250828201905080821115610daf57610dae610d52565b5b92915050565b7f4973206e6f74206f776e65720000000000000000000000000000000000000000600082015250565b6000610deb600c83610c69565b9150610df682610db5565b602082019050919050565b60006020820190508181036000830152610e1a81610dde565b9050919050565b7f5769746864726177696e6720697320706f737369626c6520616674657220707260008201527f6f6772616d20697320636c6f7365640000000000000000000000000000000000602082015250565b6000610e7d602f83610c69565b9150610e8882610e21565b604082019050919050565b60006020820190508181036000830152610eac81610e70565b9050919050565b600081905092915050565b50565b6000610ece600083610eb3565b9150610ed982610ebe565b600082019050919050565b6000610eef82610ec1565b9150819050919050565b7f4661696c656420746f2077697468647261772066756e64730000000000000000600082015250565b6000610f2f601883610c69565b9150610f3a82610ef9565b602082019050919050565b60006020820190508181036000830152610f5e81610f22565b9050919050565b7f546869732050726f6772616d20697320446f6e65000000000000000000000000600082015250565b6000610f9b601483610c69565b9150610fa682610f65565b602082019050919050565b60006020820190508181036000830152610fca81610f8e565b9050919050565b7f4e487b7100000000000000000000000000000000000000000000000000000000600052603260045260246000fd5b7f496e73756666696369656e7420636f6e74726163742062616c616e6365000000600082015250565b6000611036601d83610c69565b915061104182611000565b602082019050919050565b6000602082019050818103600083015261106581611029565b9050919050565b7f4661696c656420746f2073656e64204544550000000000000000000000000000600082015250565b60006110a2601283610c69565b91506110ad8261106c565b602082019050919050565b600060208201905081810360008301526110d181611095565b9050919050565b60006110e38261098c565b91506110ee8361098c565b925082820390508181111561110657611105610d52565b5b9291505056fea26469706673582212202456aaf9b9fe2fb463ee37fe9f17bb81d08522fbb638367806b0b2480181d2f264736f6c634300081a0033a26469706673582212206f5de3e58c735bd4f241b22d7d447a609acfef6877deaa186c6925caf48b69a064736f6c634300081a0033",
  "linkReferences": {},
  "deployedLinkReferences": {}
}