{"contracts/ConutProgram.sol":{"ConutProgram":{"abi":[{"inputs":[{"internalType":"uint256","name":"_programId","type":"uint256"},{"internalType":"address","name":"_owner","type":"address"}],"stateMutability":"payable","type":"constructor"},{"inputs":[],"name":"ReentrancyGuardReentrantCall","type":"error"},{"anonymous":false,"inputs":[{"indexed":true,"internalType":"address","name":"from","type":"address"},{"indexed":false,"internalType":"uint256","name":"amount","type":"uint256"}],"name":"FundsDeposited","type":"event"},{"anonymous":false,"inputs":[{"indexed":true,"internalType":"address","name":"to","type":"address"},{"indexed":false,"internalType":"uint256","name":"amount","type":"uint256"}],"name":"FundsWithdrawn","type":"event"},{"anonymous":false,"inputs":[{"indexed":true,"internalType":"uint256","name":"rank","type":"uint256"},{"indexed":false,"internalType":"uint256","name":"reward","type":"uint256"}],"name":"InvalidAddress","type":"event"},{"anonymous":false,"inputs":[{"indexed":true,"internalType":"address","name":"from","type":"address"},{"indexed":true,"internalType":"address","name":"to","type":"address"},{"indexed":false,"internalType":"uint256","name":"amount","type":"uint256"}],"name":"Transfer","type":"event"},{"inputs":[],"name":"deposit","outputs":[],"stateMutability":"payable","type":"function"},{"inputs":[{"components":[{"internalType":"uint256","name":"rank","type":"uint256"},{"internalType":"address","name":"walletAddr","type":"address"},{"internalType":"uint256","name":"reward","type":"uint256"}],"internalType":"struct ConutProgram.Ranking[]","name":"rankings","type":"tuple[]"}],"name":"distributeRewards","outputs":[],"stateMutability":"nonpayable","type":"function"},{"inputs":[],"name":"getBalance","outputs":[{"internalType":"uint256","name":"","type":"uint256"}],"stateMutability":"view","type":"function"},{"inputs":[],"name":"setStatus","outputs":[],"stateMutability":"nonpayable","type":"function"},{"inputs":[],"name":"totalFunds","outputs":[{"internalType":"uint256","name":"","type":"uint256"}],"stateMutability":"view","type":"function"},{"inputs":[],"name":"withdraw","outputs":[],"stateMutability":"nonpayable","type":"function"},{"stateMutability":"payable","type":"receive"}],"evm":{"bytecode":{"linkReferences":{},"object":"608060405260405161134038038061134083398181016040528101906100259190610185565b6001600081905550816001819055503460038190555080600260006101000a81548173ffffffffffffffffffffffffffffffffffffffff021916908373ffffffffffffffffffffffffffffffffffffffff1602179055506000600260146101000a81548160ff0219169083151502179055503373ffffffffffffffffffffffffffffffffffffffff167f543ba50a5eec5e6178218e364b1d0f396157b3c8fa278522c2cb7fd99407d474346040516100dd91906101d4565b60405180910390a250506101ef565b600080fd5b6000819050919050565b610104816100f1565b811461010f57600080fd5b50565b600081519050610121816100fb565b92915050565b600073ffffffffffffffffffffffffffffffffffffffff82169050919050565b600061015282610127565b9050919050565b61016281610147565b811461016d57600080fd5b50565b60008151905061017f81610159565b92915050565b6000806040838503121561019c5761019b6100ec565b5b60006101aa85828601610112565b92505060206101bb85828601610170565b9150509250929050565b6101ce816100f1565b82525050565b60006020820190506101e960008301846101c5565b92915050565b611142806101fe6000396000f3fe6080604052600436106100595760003560e01c806312065fe01461006d5780633ccfd60b14610098578063968ed600146100af578063c0336629146100da578063d0e30db0146100f1578063e476322d146100fb57610068565b3661006857610066610124565b005b600080fd5b34801561007957600080fd5b50610082610226565b60405161008f91906109a5565b60405180910390f35b3480156100a457600080fd5b506100ad61022e565b005b3480156100bb57600080fd5b506100c4610427565b6040516100d191906109a5565b60405180910390f35b3480156100e657600080fd5b506100ef61042d565b005b6100f96104da565b005b34801561010757600080fd5b50610122600480360381019061011d9190610c20565b6104f4565b005b60003411610167576040517f08c379a000000000000000000000000000000000000000000000000000000000815260040161015e90610cc6565b60405180910390fd5b60001515600260149054906101000a900460ff161515146101bd576040517f08c379a00000000000000000000000000000000000000000000000000000000081526004016101b490610d32565b60405180910390fd5b34600360008282546101cf9190610d81565b925050819055503373ffffffffffffffffffffffffffffffffffffffff167f543ba50a5eec5e6178218e364b1d0f396157b3c8fa278522c2cb7fd99407d4743460405161021c91906109a5565b60405180910390a2565b600047905090565b600260009054906101000a900473ffffffffffffffffffffffffffffffffffffffff1673ffffffffffffffffffffffffffffffffffffffff163373ffffffffffffffffffffffffffffffffffffffff16146102be576040517f08c379a00000000000000000000000000000000000000000000000000000000081526004016102b590610e01565b60405180910390fd5b6102c661093c565b60011515600260149054906101000a900460ff1615151461031c576040517f08c379a000000000000000000000000000000000000000000000000000000000815260040161031390610e93565b60405180910390fd5b600047905060003373ffffffffffffffffffffffffffffffffffffffff168260405161034790610ee4565b60006040518083038185875af1925050503d8060008114610384576040519150601f19603f3d011682016040523d82523d6000602084013e610389565b606091505b50509050806103cd576040517f08c379a00000000000000000000000000000000000000000000000000000000081526004016103c490610f45565b60405180910390fd5b3373ffffffffffffffffffffffffffffffffffffffff167feaff4b37086828766ad3268786972c0cd24259d4c87a80f9d3963a3c3d999b0d8360405161041391906109a5565b60405180910390a25050610425610982565b565b60035481565b600260009054906101000a900473ffffffffffffffffffffffffffffffffffffffff1673ffffffffffffffffffffffffffffffffffffffff163373ffffffffffffffffffffffffffffffffffffffff16146104bd576040517f08c379a00000000000000000000000000000000000000000000000000000000081526004016104b490610e01565b60405180910390fd5b6001600260146101000a81548160ff021916908315150217905550565b6104e261093c565b6104ea610124565b6104f2610982565b565b600260009054906101000a900473ffffffffffffffffffffffffffffffffffffffff1673ffffffffffffffffffffffffffffffffffffffff163373ffffffffffffffffffffffffffffffffffffffff1614610584576040517f08c379a000000000000000000000000000000000000000000000000000000000815260040161057b90610e01565b60405180910390fd5b61058c61093c565b60001515600260149054906101000a900460ff161515146105e2576040517f08c379a00000000000000000000000000000000000000000000000000000000081526004016105d990610fb1565b60405180910390fd5b6000805b82518110156106285782818151811061060257610601610fd1565b5b602002602001015160400151826106199190610d81565b915080806001019150506105e6565b5080600354101561066e576040517f08c379a00000000000000000000000000000000000000000000000000000000081526004016106659061104c565b60405180910390fd5b60005b825181101561091457600073ffffffffffffffffffffffffffffffffffffffff168382815181106106a5576106a4610fd1565b5b60200260200101516020015173ffffffffffffffffffffffffffffffffffffffff16146108925760008382815181106106e1576106e0610fd1565b5b60200260200101516020015173ffffffffffffffffffffffffffffffffffffffff1684838151811061071657610715610fd1565b5b60200260200101516040015160405161072e90610ee4565b60006040518083038185875af1925050503d806000811461076b576040519150601f19603f3d011682016040523d82523d6000602084013e610770565b606091505b50509050806107b4576040517f08c379a00000000000000000000000000000000000000000000000000000000081526004016107ab906110b8565b60405180910390fd5b8382815181106107c7576107c6610fd1565b5b60200260200101516020015173ffffffffffffffffffffffffffffffffffffffff163073ffffffffffffffffffffffffffffffffffffffff167fddf252ad1be2c89b69c2b068fc378daa952ba7f163c4a11628f55a4df523b3ef86858151811061083457610833610fd1565b5b60200260200101516040015160405161084d91906109a5565b60405180910390a383828151811061086857610867610fd1565b5b6020026020010151604001516003600082825461088591906110d8565b9250508190555050610907565b8281815181106108a5576108a4610fd1565b5b6020026020010151600001517f20b53e67568642a7682697c610858d1c4b363a6fc798df042d66d5c06e34fd4a8483815181106108e5576108e4610fd1565b5b6020026020010151604001516040516108fe91906109a5565b60405180910390a25b8080600101915050610671565b506001600260146101000a81548160ff02191690831515021790555050610939610982565b50565b600260005403610978576040517f3ee5aeb500000000000000000000000000000000000000000000000000000000815260040160405180910390fd5b6002600081905550565b6001600081905550565b6000819050919050565b61099f8161098c565b82525050565b60006020820190506109ba6000830184610996565b92915050565b6000604051905090565b600080fd5b600080fd5b600080fd5b6000601f19601f8301169050919050565b7f4e487b7100000000000000000000000000000000000000000000000000000000600052604160045260246000fd5b610a22826109d9565b810181811067ffffffffffffffff82111715610a4157610a406109ea565b5b80604052505050565b6000610a546109c0565b9050610a608282610a19565b919050565b600067ffffffffffffffff821115610a8057610a7f6109ea565b5b602082029050602081019050919050565b600080fd5b600080fd5b610aa48161098c565b8114610aaf57600080fd5b50565b600081359050610ac181610a9b565b92915050565b600073ffffffffffffffffffffffffffffffffffffffff82169050919050565b6000610af282610ac7565b9050919050565b610b0281610ae7565b8114610b0d57600080fd5b50565b600081359050610b1f81610af9565b92915050565b600060608284031215610b3b57610b3a610a96565b5b610b456060610a4a565b90506000610b5584828501610ab2565b6000830152506020610b6984828501610b10565b6020830152506040610b7d84828501610ab2565b60408301525092915050565b6000610b9c610b9784610a65565b610a4a565b90508083825260208201905060608402830185811115610bbf57610bbe610a91565b5b835b81811015610be85780610bd48882610b25565b845260208401935050606081019050610bc1565b5050509392505050565b600082601f830112610c0757610c066109d4565b5b8135610c17848260208601610b89565b91505092915050565b600060208284031215610c3657610c356109ca565b5b600082013567ffffffffffffffff811115610c5457610c536109cf565b5b610c6084828501610bf2565b91505092915050565b600082825260208201905092915050565b7f4d7573742073656e6420736f6d65204544550000000000000000000000000000600082015250565b6000610cb0601283610c69565b9150610cbb82610c7a565b602082019050919050565b60006020820190508181036000830152610cdf81610ca3565b9050919050565b7f4974206973206e6f74206120706572696f6420666f72206465706f7369747300600082015250565b6000610d1c601f83610c69565b9150610d2782610ce6565b602082019050919050565b60006020820190508181036000830152610d4b81610d0f565b9050919050565b7f4e487b7100000000000000000000000000000000000000000000000000000000600052601160045260246000fd5b6000610d8c8261098c565b9150610d978361098c565b9250828201905080821115610daf57610dae610d52565b5b92915050565b7f4973206e6f74206f776e65720000000000000000000000000000000000000000600082015250565b6000610deb600c83610c69565b9150610df682610db5565b602082019050919050565b60006020820190508181036000830152610e1a81610dde565b9050919050565b7f5769746864726177696e6720697320706f737369626c6520616674657220707260008201527f6f6772616d20697320636c6f7365640000000000000000000000000000000000602082015250565b6000610e7d602f83610c69565b9150610e8882610e21565b604082019050919050565b60006020820190508181036000830152610eac81610e70565b9050919050565b600081905092915050565b50565b6000610ece600083610eb3565b9150610ed982610ebe565b600082019050919050565b6000610eef82610ec1565b9150819050919050565b7f4661696c656420746f2077697468647261772066756e64730000000000000000600082015250565b6000610f2f601883610c69565b9150610f3a82610ef9565b602082019050919050565b60006020820190508181036000830152610f5e81610f22565b9050919050565b7f546869732050726f6772616d20697320446f6e65000000000000000000000000600082015250565b6000610f9b601483610c69565b9150610fa682610f65565b602082019050919050565b60006020820190508181036000830152610fca81610f8e565b9050919050565b7f4e487b7100000000000000000000000000000000000000000000000000000000600052603260045260246000fd5b7f496e73756666696369656e7420636f6e74726163742062616c616e6365000000600082015250565b6000611036601d83610c69565b915061104182611000565b602082019050919050565b6000602082019050818103600083015261106581611029565b9050919050565b7f4661696c656420746f2073656e64204544550000000000000000000000000000600082015250565b60006110a2601283610c69565b91506110ad8261106c565b602082019050919050565b600060208201905081810360008301526110d181611095565b9050919050565b60006110e38261098c565b91506110ee8361098c565b925082820390508181111561110657611105610d52565b5b9291505056fea26469706673582212202456aaf9b9fe2fb463ee37fe9f17bb81d08522fbb638367806b0b2480181d2f264736f6c634300081a0033","opcodes":"PUSH1 0x80 PUSH1 0x40 MSTORE PUSH1 0x40 MLOAD PUSH2 0x1340 CODESIZE SUB DUP1 PUSH2 0x1340 DUP4 CODECOPY DUP2 DUP2 ADD PUSH1 0x40 MSTORE DUP2 ADD SWAP1 PUSH2 0x25 SWAP2 SWAP1 PUSH2 0x185 JUMP JUMPDEST PUSH1 0x1 PUSH1 0x0 DUP2 SWAP1 SSTORE POP DUP2 PUSH1 0x1 DUP2 SWAP1 SSTORE POP CALLVALUE PUSH1 0x3 DUP2 SWAP1 SSTORE POP DUP1 PUSH1 0x2 PUSH1 0x0 PUSH2 0x100 EXP DUP2 SLOAD DUP2 PUSH20 0xFFFFFFFFFFFFFFFFFFFFFFFFFFFFFFFFFFFFFFFF MUL NOT AND SWAP1 DUP4 PUSH20 0xFFFFFFFFFFFFFFFFFFFFFFFFFFFFFFFFFFFFFFFF AND MUL OR SWAP1 SSTORE POP PUSH1 0x0 PUSH1 0x2 PUSH1 0x14 PUSH2 0x100 EXP DUP2 SLOAD DUP2 PUSH1 0xFF MUL NOT AND SWAP1 DUP4 ISZERO ISZERO MUL OR SWAP1 SSTORE POP CALLER PUSH20 0xFFFFFFFFFFFFFFFFFFFFFFFFFFFFFFFFFFFFFFFF AND PUSH32 0x543BA50A5EEC5E6178218E364B1D0F396157B3C8FA278522C2CB7FD99407D474 CALLVALUE PUSH1 0x40 MLOAD PUSH2 0xDD SWAP2 SWAP1 PUSH2 0x1D4 JUMP JUMPDEST PUSH1 0x40 MLOAD DUP1 SWAP2 SUB SWAP1 LOG2 POP POP PUSH2 0x1EF JUMP JUMPDEST PUSH1 0x0 DUP1 REVERT JUMPDEST PUSH1 0x0 DUP2 SWAP1 POP SWAP2 SWAP1 POP JUMP JUMPDEST PUSH2 0x104 DUP2 PUSH2 0xF1 JUMP JUMPDEST DUP2 EQ PUSH2 0x10F JUMPI PUSH1 0x0 DUP1 REVERT JUMPDEST POP JUMP JUMPDEST PUSH1 0x0 DUP2 MLOAD SWAP1 POP PUSH2 0x121 DUP2 PUSH2 0xFB JUMP JUMPDEST SWAP3 SWAP2 POP POP JUMP JUMPDEST PUSH1 0x0 PUSH20 0xFFFFFFFFFFFFFFFFFFFFFFFFFFFFFFFFFFFFFFFF DUP3 AND SWAP1 POP SWAP2 SWAP1 POP JUMP JUMPDEST PUSH1 0x0 PUSH2 0x152 DUP3 PUSH2 0x127 JUMP JUMPDEST SWAP1 POP SWAP2 SWAP1 POP JUMP JUMPDEST PUSH2 0x162 DUP2 PUSH2 0x147 JUMP JUMPDEST DUP2 EQ PUSH2 0x16D JUMPI PUSH1 0x0 DUP1 REVERT JUMPDEST POP JUMP JUMPDEST PUSH1 0x0 DUP2 MLOAD SWAP1 POP PUSH2 0x17F DUP2 PUSH2 0x159 JUMP JUMPDEST SWAP3 SWAP2 POP POP JUMP JUMPDEST PUSH1 0x0 DUP1 PUSH1 0x40 DUP4 DUP6 SUB SLT ISZERO PUSH2 0x19C JUMPI PUSH2 0x19B PUSH2 0xEC JUMP JUMPDEST JUMPDEST PUSH1 0x0 PUSH2 0x1AA DUP6 DUP3 DUP7 ADD PUSH2 0x112 JUMP JUMPDEST SWAP3 POP POP PUSH1 0x20 PUSH2 0x1BB DUP6 DUP3 DUP7 ADD PUSH2 0x170 JUMP JUMPDEST SWAP2 POP POP SWAP3 POP SWAP3 SWAP1 POP JUMP JUMPDEST PUSH2 0x1CE DUP2 PUSH2 0xF1 JUMP JUMPDEST DUP3 MSTORE POP POP JUMP JUMPDEST PUSH1 0x0 PUSH1 0x20 DUP3 ADD SWAP1 POP PUSH2 0x1E9 PUSH1 0x0 DUP4 ADD DUP5 PUSH2 0x1C5 JUMP JUMPDEST SWAP3 SWAP2 POP POP JUMP JUMPDEST PUSH2 0x1142 DUP1 PUSH2 0x1FE PUSH1 0x0 CODECOPY PUSH1 0x0 RETURN INVALID PUSH1 0x80 PUSH1 0x40 MSTORE PUSH1 0x4 CALLDATASIZE LT PUSH2 0x59 JUMPI PUSH1 0x0 CALLDATALOAD PUSH1 0xE0 SHR DUP1 PUSH4 0x12065FE0 EQ PUSH2 0x6D JUMPI DUP1 PUSH4 0x3CCFD60B EQ PUSH2 0x98 JUMPI DUP1 PUSH4 0x968ED600 EQ PUSH2 0xAF JUMPI DUP1 PUSH4 0xC0336629 EQ PUSH2 0xDA JUMPI DUP1 PUSH4 0xD0E30DB0 EQ PUSH2 0xF1 JUMPI DUP1 PUSH4 0xE476322D EQ PUSH2 0xFB JUMPI PUSH2 0x68 JUMP JUMPDEST CALLDATASIZE PUSH2 0x68 JUMPI PUSH2 0x66 PUSH2 0x124 JUMP JUMPDEST STOP JUMPDEST PUSH1 0x0 DUP1 REVERT JUMPDEST CALLVALUE DUP1 ISZERO PUSH2 0x79 JUMPI PUSH1 0x0 DUP1 REVERT JUMPDEST POP PUSH2 0x82 PUSH2 0x226 JUMP JUMPDEST PUSH1 0x40 MLOAD PUSH2 0x8F SWAP2 SWAP1 PUSH2 0x9A5 JUMP JUMPDEST PUSH1 0x40 MLOAD DUP1 SWAP2 SUB SWAP1 RETURN JUMPDEST CALLVALUE DUP1 ISZERO PUSH2 0xA4 JUMPI PUSH1 0x0 DUP1 REVERT JUMPDEST POP PUSH2 0xAD PUSH2 0x22E JUMP JUMPDEST STOP JUMPDEST CALLVALUE DUP1 ISZERO PUSH2 0xBB JUMPI PUSH1 0x0 DUP1 REVERT JUMPDEST POP PUSH2 0xC4 PUSH2 0x427 JUMP JUMPDEST PUSH1 0x40 MLOAD PUSH2 0xD1 SWAP2 SWAP1 PUSH2 0x9A5 JUMP JUMPDEST PUSH1 0x40 MLOAD DUP1 SWAP2 SUB SWAP1 RETURN JUMPDEST CALLVALUE DUP1 ISZERO PUSH2 0xE6 JUMPI PUSH1 0x0 DUP1 REVERT JUMPDEST POP PUSH2 0xEF PUSH2 0x42D JUMP JUMPDEST STOP JUMPDEST PUSH2 0xF9 PUSH2 0x4DA JUMP JUMPDEST STOP JUMPDEST CALLVALUE DUP1 ISZERO PUSH2 0x107 JUMPI PUSH1 0x0 DUP1 REVERT JUMPDEST POP PUSH2 0x122 PUSH1 0x4 DUP1 CALLDATASIZE SUB DUP2 ADD SWAP1 PUSH2 0x11D SWAP2 SWAP1 PUSH2 0xC20 JUMP JUMPDEST PUSH2 0x4F4 JUMP JUMPDEST STOP JUMPDEST PUSH1 0x0 CALLVALUE GT PUSH2 0x167 JUMPI PUSH1 0x40 MLOAD PUSH32 0x8C379A000000000000000000000000000000000000000000000000000000000 DUP2 MSTORE PUSH1 0x4 ADD PUSH2 0x15E SWAP1 PUSH2 0xCC6 JUMP JUMPDEST PUSH1 0x40 MLOAD DUP1 SWAP2 SUB SWAP1 REVERT JUMPDEST PUSH1 0x0 ISZERO ISZERO PUSH1 0x2 PUSH1 0x14 SWAP1 SLOAD SWAP1 PUSH2 0x100 EXP SWAP1 DIV PUSH1 0xFF AND ISZERO ISZERO EQ PUSH2 0x1BD JUMPI PUSH1 0x40 MLOAD PUSH32 0x8C379A000000000000000000000000000000000000000000000000000000000 DUP2 MSTORE PUSH1 0x4 ADD PUSH2 0x1B4 SWAP1 PUSH2 0xD32 JUMP JUMPDEST PUSH1 0x40 MLOAD DUP1 SWAP2 SUB SWAP1 REVERT JUMPDEST CALLVALUE PUSH1 0x3 PUSH1 0x0 DUP3 DUP3 SLOAD PUSH2 0x1CF SWAP2 SWAP1 PUSH2 0xD81 JUMP JUMPDEST SWAP3 POP POP DUP2 SWAP1 SSTORE POP CALLER PUSH20 0xFFFFFFFFFFFFFFFFFFFFFFFFFFFFFFFFFFFFFFFF AND PUSH32 0x543BA50A5EEC5E6178218E364B1D0F396157B3C8FA278522C2CB7FD99407D474 CALLVALUE PUSH1 0x40 MLOAD PUSH2 0x21C SWAP2 SWAP1 PUSH2 0x9A5 JUMP JUMPDEST PUSH1 0x40 MLOAD DUP1 SWAP2 SUB SWAP1 LOG2 JUMP JUMPDEST PUSH1 0x0 SELFBALANCE SWAP1 POP SWAP1 JUMP JUMPDEST PUSH1 0x2 PUSH1 0x0 SWAP1 SLOAD SWAP1 PUSH2 0x100 EXP SWAP1 DIV PUSH20 0xFFFFFFFFFFFFFFFFFFFFFFFFFFFFFFFFFFFFFFFF AND PUSH20 0xFFFFFFFFFFFFFFFFFFFFFFFFFFFFFFFFFFFFFFFF AND CALLER PUSH20 0xFFFFFFFFFFFFFFFFFFFFFFFFFFFFFFFFFFFFFFFF AND EQ PUSH2 0x2BE JUMPI PUSH1 0x40 MLOAD PUSH32 0x8C379A000000000000000000000000000000000000000000000000000000000 DUP2 MSTORE PUSH1 0x4 ADD PUSH2 0x2B5 SWAP1 PUSH2 0xE01 JUMP JUMPDEST PUSH1 0x40 MLOAD DUP1 SWAP2 SUB SWAP1 REVERT JUMPDEST PUSH2 0x2C6 PUSH2 0x93C JUMP JUMPDEST PUSH1 0x1 ISZERO ISZERO PUSH1 0x2 PUSH1 0x14 SWAP1 SLOAD SWAP1 PUSH2 0x100 EXP SWAP1 DIV PUSH1 0xFF AND ISZERO ISZERO EQ PUSH2 0x31C JUMPI PUSH1 0x40 MLOAD PUSH32 0x8C379A000000000000000000000000000000000000000000000000000000000 DUP2 MSTORE PUSH1 0x4 ADD PUSH2 0x313 SWAP1 PUSH2 0xE93 JUMP JUMPDEST PUSH1 0x40 MLOAD DUP1 SWAP2 SUB SWAP1 REVERT JUMPDEST PUSH1 0x0 SELFBALANCE SWAP1 POP PUSH1 0x0 CALLER PUSH20 0xFFFFFFFFFFFFFFFFFFFFFFFFFFFFFFFFFFFFFFFF AND DUP3 PUSH1 0x40 MLOAD PUSH2 0x347 SWAP1 PUSH2 0xEE4 JUMP JUMPDEST PUSH1 0x0 PUSH1 0x40 MLOAD DUP1 DUP4 SUB DUP2 DUP6 DUP8 GAS CALL SWAP3 POP POP POP RETURNDATASIZE DUP1 PUSH1 0x0 DUP2 EQ PUSH2 0x384 JUMPI PUSH1 0x40 MLOAD SWAP2 POP PUSH1 0x1F NOT PUSH1 0x3F RETURNDATASIZE ADD AND DUP3 ADD PUSH1 0x40 MSTORE RETURNDATASIZE DUP3 MSTORE RETURNDATASIZE PUSH1 0x0 PUSH1 0x20 DUP5 ADD RETURNDATACOPY PUSH2 0x389 JUMP JUMPDEST PUSH1 0x60 SWAP2 POP JUMPDEST POP POP SWAP1 POP DUP1 PUSH2 0x3CD JUMPI PUSH1 0x40 MLOAD PUSH32 0x8C379A000000000000000000000000000000000000000000000000000000000 DUP2 MSTORE PUSH1 0x4 ADD PUSH2 0x3C4 SWAP1 PUSH2 0xF45 JUMP JUMPDEST PUSH1 0x40 MLOAD DUP1 SWAP2 SUB SWAP1 REVERT JUMPDEST CALLER PUSH20 0xFFFFFFFFFFFFFFFFFFFFFFFFFFFFFFFFFFFFFFFF AND PUSH32 0xEAFF4B37086828766AD3268786972C0CD24259D4C87A80F9D3963A3C3D999B0D DUP4 PUSH1 0x40 MLOAD PUSH2 0x413 SWAP2 SWAP1 PUSH2 0x9A5 JUMP JUMPDEST PUSH1 0x40 MLOAD DUP1 SWAP2 SUB SWAP1 LOG2 POP POP PUSH2 0x425 PUSH2 0x982 JUMP JUMPDEST JUMP JUMPDEST PUSH1 0x3 SLOAD DUP2 JUMP JUMPDEST PUSH1 0x2 PUSH1 0x0 SWAP1 SLOAD SWAP1 PUSH2 0x100 EXP SWAP1 DIV PUSH20 0xFFFFFFFFFFFFFFFFFFFFFFFFFFFFFFFFFFFFFFFF AND PUSH20 0xFFFFFFFFFFFFFFFFFFFFFFFFFFFFFFFFFFFFFFFF AND CALLER PUSH20 0xFFFFFFFFFFFFFFFFFFFFFFFFFFFFFFFFFFFFFFFF AND EQ PUSH2 0x4BD JUMPI PUSH1 0x40 MLOAD PUSH32 0x8C379A000000000000000000000000000000000000000000000000000000000 DUP2 MSTORE PUSH1 0x4 ADD PUSH2 0x4B4 SWAP1 PUSH2 0xE01 JUMP JUMPDEST PUSH1 0x40 MLOAD DUP1 SWAP2 SUB SWAP1 REVERT JUMPDEST PUSH1 0x1 PUSH1 0x2 PUSH1 0x14 PUSH2 0x100 EXP DUP2 SLOAD DUP2 PUSH1 0xFF MUL NOT AND SWAP1 DUP4 ISZERO ISZERO MUL OR SWAP1 SSTORE POP JUMP JUMPDEST PUSH2 0x4E2 PUSH2 0x93C JUMP JUMPDEST PUSH2 0x4EA PUSH2 0x124 JUMP JUMPDEST PUSH2 0x4F2 PUSH2 0x982 JUMP JUMPDEST JUMP JUMPDEST PUSH1 0x2 PUSH1 0x0 SWAP1 SLOAD SWAP1 PUSH2 0x100 EXP SWAP1 DIV PUSH20 0xFFFFFFFFFFFFFFFFFFFFFFFFFFFFFFFFFFFFFFFF AND PUSH20 0xFFFFFFFFFFFFFFFFFFFFFFFFFFFFFFFFFFFFFFFF AND CALLER PUSH20 0xFFFFFFFFFFFFFFFFFFFFFFFFFFFFFFFFFFFFFFFF AND EQ PUSH2 0x584 JUMPI PUSH1 0x40 MLOAD PUSH32 0x8C379A000000000000000000000000000000000000000000000000000000000 DUP2 MSTORE PUSH1 0x4 ADD PUSH2 0x57B SWAP1 PUSH2 0xE01 JUMP JUMPDEST PUSH1 0x40 MLOAD DUP1 SWAP2 SUB SWAP1 REVERT JUMPDEST PUSH2 0x58C PUSH2 0x93C JUMP JUMPDEST PUSH1 0x0 ISZERO ISZERO PUSH1 0x2 PUSH1 0x14 SWAP1 SLOAD SWAP1 PUSH2 0x100 EXP SWAP1 DIV PUSH1 0xFF AND ISZERO ISZERO EQ PUSH2 0x5E2 JUMPI PUSH1 0x40 MLOAD PUSH32 0x8C379A000000000000000000000000000000000000000000000000000000000 DUP2 MSTORE PUSH1 0x4 ADD PUSH2 0x5D9 SWAP1 PUSH2 0xFB1 JUMP JUMPDEST PUSH1 0x40 MLOAD DUP1 SWAP2 SUB SWAP1 REVERT JUMPDEST PUSH1 0x0 DUP1 JUMPDEST DUP3 MLOAD DUP2 LT ISZERO PUSH2 0x628 JUMPI DUP3 DUP2 DUP2 MLOAD DUP2 LT PUSH2 0x602 JUMPI PUSH2 0x601 PUSH2 0xFD1 JUMP JUMPDEST JUMPDEST PUSH1 0x20 MUL PUSH1 0x20 ADD ADD MLOAD PUSH1 0x40 ADD MLOAD DUP3 PUSH2 0x619 SWAP2 SWAP1 PUSH2 0xD81 JUMP JUMPDEST SWAP2 POP DUP1 DUP1 PUSH1 0x1 ADD SWAP2 POP POP PUSH2 0x5E6 JUMP JUMPDEST POP DUP1 PUSH1 0x3 SLOAD LT ISZERO PUSH2 0x66E JUMPI PUSH1 0x40 MLOAD PUSH32 0x8C379A000000000000000000000000000000000000000000000000000000000 DUP2 MSTORE PUSH1 0x4 ADD PUSH2 0x665 SWAP1 PUSH2 0x104C JUMP JUMPDEST PUSH1 0x40 MLOAD DUP1 SWAP2 SUB SWAP1 REVERT JUMPDEST PUSH1 0x0 JUMPDEST DUP3 MLOAD DUP2 LT ISZERO PUSH2 0x914 JUMPI PUSH1 0x0 PUSH20 0xFFFFFFFFFFFFFFFFFFFFFFFFFFFFFFFFFFFFFFFF AND DUP4 DUP3 DUP2 MLOAD DUP2 LT PUSH2 0x6A5 JUMPI PUSH2 0x6A4 PUSH2 0xFD1 JUMP JUMPDEST JUMPDEST PUSH1 0x20 MUL PUSH1 0x20 ADD ADD MLOAD PUSH1 0x20 ADD MLOAD PUSH20 0xFFFFFFFFFFFFFFFFFFFFFFFFFFFFFFFFFFFFFFFF AND EQ PUSH2 0x892 JUMPI PUSH1 0x0 DUP4 DUP3 DUP2 MLOAD DUP2 LT PUSH2 0x6E1 JUMPI PUSH2 0x6E0 PUSH2 0xFD1 JUMP JUMPDEST JUMPDEST PUSH1 0x20 MUL PUSH1 0x20 ADD ADD MLOAD PUSH1 0x20 ADD MLOAD PUSH20 0xFFFFFFFFFFFFFFFFFFFFFFFFFFFFFFFFFFFFFFFF AND DUP5 DUP4 DUP2 MLOAD DUP2 LT PUSH2 0x716 JUMPI PUSH2 0x715 PUSH2 0xFD1 JUMP JUMPDEST JUMPDEST PUSH1 0x20 MUL PUSH1 0x20 ADD ADD MLOAD PUSH1 0x40 ADD MLOAD PUSH1 0x40 MLOAD PUSH2 0x72E SWAP1 PUSH2 0xEE4 JUMP JUMPDEST PUSH1 0x0 PUSH1 0x40 MLOAD DUP1 DUP4 SUB DUP2 DUP6 DUP8 GAS CALL SWAP3 POP POP POP RETURNDATASIZE DUP1 PUSH1 0x0 DUP2 EQ PUSH2 0x76B JUMPI PUSH1 0x40 MLOAD SWAP2 POP PUSH1 0x1F NOT PUSH1 0x3F RETURNDATASIZE ADD AND DUP3 ADD PUSH1 0x40 MSTORE RETURNDATASIZE DUP3 MSTORE RETURNDATASIZE PUSH1 0x0 PUSH1 0x20 DUP5 ADD RETURNDATACOPY PUSH2 0x770 JUMP JUMPDEST PUSH1 0x60 SWAP2 POP JUMPDEST POP POP SWAP1 POP DUP1 PUSH2 0x7B4 JUMPI PUSH1 0x40 MLOAD PUSH32 0x8C379A000000000000000000000000000000000000000000000000000000000 DUP2 MSTORE PUSH1 0x4 ADD PUSH2 0x7AB SWAP1 PUSH2 0x10B8 JUMP JUMPDEST PUSH1 0x40 MLOAD DUP1 SWAP2 SUB SWAP1 REVERT JUMPDEST DUP4 DUP3 DUP2 MLOAD DUP2 LT PUSH2 0x7C7 JUMPI PUSH2 0x7C6 PUSH2 0xFD1 JUMP JUMPDEST JUMPDEST PUSH1 0x20 MUL PUSH1 0x20 ADD ADD MLOAD PUSH1 0x20 ADD MLOAD PUSH20 0xFFFFFFFFFFFFFFFFFFFFFFFFFFFFFFFFFFFFFFFF AND ADDRESS PUSH20 0xFFFFFFFFFFFFFFFFFFFFFFFFFFFFFFFFFFFFFFFF AND PUSH32 0xDDF252AD1BE2C89B69C2B068FC378DAA952BA7F163C4A11628F55A4DF523B3EF DUP7 DUP6 DUP2 MLOAD DUP2 LT PUSH2 0x834 JUMPI PUSH2 0x833 PUSH2 0xFD1 JUMP JUMPDEST JUMPDEST PUSH1 0x20 MUL PUSH1 0x20 ADD ADD MLOAD PUSH1 0x40 ADD MLOAD PUSH1 0x40 MLOAD PUSH2 0x84D SWAP2 SWAP1 PUSH2 0x9A5 JUMP JUMPDEST PUSH1 0x40 MLOAD DUP1 SWAP2 SUB SWAP1 LOG3 DUP4 DUP3 DUP2 MLOAD DUP2 LT PUSH2 0x868 JUMPI PUSH2 0x867 PUSH2 0xFD1 JUMP JUMPDEST JUMPDEST PUSH1 0x20 MUL PUSH1 0x20 ADD ADD MLOAD PUSH1 0x40 ADD MLOAD PUSH1 0x3 PUSH1 0x0 DUP3 DUP3 SLOAD PUSH2 0x885 SWAP2 SWAP1 PUSH2 0x10D8 JUMP JUMPDEST SWAP3 POP POP DUP2 SWAP1 SSTORE POP POP PUSH2 0x907 JUMP JUMPDEST DUP3 DUP2 DUP2 MLOAD DUP2 LT PUSH2 0x8A5 JUMPI PUSH2 0x8A4 PUSH2 0xFD1 JUMP JUMPDEST JUMPDEST PUSH1 0x20 MUL PUSH1 0x20 ADD ADD MLOAD PUSH1 0x0 ADD MLOAD PUSH32 0x20B53E67568642A7682697C610858D1C4B363A6FC798DF042D66D5C06E34FD4A DUP5 DUP4 DUP2 MLOAD DUP2 LT PUSH2 0x8E5 JUMPI PUSH2 0x8E4 PUSH2 0xFD1 JUMP JUMPDEST JUMPDEST PUSH1 0x20 MUL PUSH1 0x20 ADD ADD MLOAD PUSH1 0x40 ADD MLOAD PUSH1 0x40 MLOAD PUSH2 0x8FE SWAP2 SWAP1 PUSH2 0x9A5 JUMP JUMPDEST PUSH1 0x40 MLOAD DUP1 SWAP2 SUB SWAP1 LOG2 JUMPDEST DUP1 DUP1 PUSH1 0x1 ADD SWAP2 POP POP PUSH2 0x671 JUMP JUMPDEST POP PUSH1 0x1 PUSH1 0x2 PUSH1 0x14 PUSH2 0x100 EXP DUP2 SLOAD DUP2 PUSH1 0xFF MUL NOT AND SWAP1 DUP4 ISZERO ISZERO MUL OR SWAP1 SSTORE POP POP PUSH2 0x939 PUSH2 0x982 JUMP JUMPDEST POP JUMP JUMPDEST PUSH1 0x2 PUSH1 0x0 SLOAD SUB PUSH2 0x978 JUMPI PUSH1 0x40 MLOAD PUSH32 0x3EE5AEB500000000000000000000000000000000000000000000000000000000 DUP2 MSTORE PUSH1 0x4 ADD PUSH1 0x40 MLOAD DUP1 SWAP2 SUB SWAP1 REVERT JUMPDEST PUSH1 0x2 PUSH1 0x0 DUP2 SWAP1 SSTORE POP JUMP JUMPDEST PUSH1 0x1 PUSH1 0x0 DUP2 SWAP1 SSTORE POP JUMP JUMPDEST PUSH1 0x0 DUP2 SWAP1 POP SWAP2 SWAP1 POP JUMP JUMPDEST PUSH2 0x99F DUP2 PUSH2 0x98C JUMP JUMPDEST DUP3 MSTORE POP POP JUMP JUMPDEST PUSH1 0x0 PUSH1 0x20 DUP3 ADD SWAP1 POP PUSH2 0x9BA PUSH1 0x0 DUP4 ADD DUP5 PUSH2 0x996 JUMP JUMPDEST SWAP3 SWAP2 POP POP JUMP JUMPDEST PUSH1 0x0 PUSH1 0x40 MLOAD SWAP1 POP SWAP1 JUMP JUMPDEST PUSH1 0x0 DUP1 REVERT JUMPDEST PUSH1 0x0 DUP1 REVERT JUMPDEST PUSH1 0x0 DUP1 REVERT JUMPDEST PUSH1 0x0 PUSH1 0x1F NOT PUSH1 0x1F DUP4 ADD AND SWAP1 POP SWAP2 SWAP1 POP JUMP JUMPDEST PUSH32 0x4E487B7100000000000000000000000000000000000000000000000000000000 PUSH1 0x0 MSTORE PUSH1 0x41 PUSH1 0x4 MSTORE PUSH1 0x24 PUSH1 0x0 REVERT JUMPDEST PUSH2 0xA22 DUP3 PUSH2 0x9D9 JUMP JUMPDEST DUP2 ADD DUP2 DUP2 LT PUSH8 0xFFFFFFFFFFFFFFFF DUP3 GT OR ISZERO PUSH2 0xA41 JUMPI PUSH2 0xA40 PUSH2 0x9EA JUMP JUMPDEST JUMPDEST DUP1 PUSH1 0x40 MSTORE POP POP POP JUMP JUMPDEST PUSH1 0x0 PUSH2 0xA54 PUSH2 0x9C0 JUMP JUMPDEST SWAP1 POP PUSH2 0xA60 DUP3 DUP3 PUSH2 0xA19 JUMP JUMPDEST SWAP2 SWAP1 POP JUMP JUMPDEST PUSH1 0x0 PUSH8 0xFFFFFFFFFFFFFFFF DUP3 GT ISZERO PUSH2 0xA80 JUMPI PUSH2 0xA7F PUSH2 0x9EA JUMP JUMPDEST JUMPDEST PUSH1 0x20 DUP3 MUL SWAP1 POP PUSH1 0x20 DUP2 ADD SWAP1 POP SWAP2 SWAP1 POP JUMP JUMPDEST PUSH1 0x0 DUP1 REVERT JUMPDEST PUSH1 0x0 DUP1 REVERT JUMPDEST PUSH2 0xAA4 DUP2 PUSH2 0x98C JUMP JUMPDEST DUP2 EQ PUSH2 0xAAF JUMPI PUSH1 0x0 DUP1 REVERT JUMPDEST POP JUMP JUMPDEST PUSH1 0x0 DUP2 CALLDATALOAD SWAP1 POP PUSH2 0xAC1 DUP2 PUSH2 0xA9B JUMP JUMPDEST SWAP3 SWAP2 POP POP JUMP JUMPDEST PUSH1 0x0 PUSH20 0xFFFFFFFFFFFFFFFFFFFFFFFFFFFFFFFFFFFFFFFF DUP3 AND SWAP1 POP SWAP2 SWAP1 POP JUMP JUMPDEST PUSH1 0x0 PUSH2 0xAF2 DUP3 PUSH2 0xAC7 JUMP JUMPDEST SWAP1 POP SWAP2 SWAP1 POP JUMP JUMPDEST PUSH2 0xB02 DUP2 PUSH2 0xAE7 JUMP JUMPDEST DUP2 EQ PUSH2 0xB0D JUMPI PUSH1 0x0 DUP1 REVERT JUMPDEST POP JUMP JUMPDEST PUSH1 0x0 DUP2 CALLDATALOAD SWAP1 POP PUSH2 0xB1F DUP2 PUSH2 0xAF9 JUMP JUMPDEST SWAP3 SWAP2 POP POP JUMP JUMPDEST PUSH1 0x0 PUSH1 0x60 DUP3 DUP5 SUB SLT ISZERO PUSH2 0xB3B JUMPI PUSH2 0xB3A PUSH2 0xA96 JUMP JUMPDEST JUMPDEST PUSH2 0xB45 PUSH1 0x60 PUSH2 0xA4A JUMP JUMPDEST SWAP1 POP PUSH1 0x0 PUSH2 0xB55 DUP5 DUP3 DUP6 ADD PUSH2 0xAB2 JUMP JUMPDEST PUSH1 0x0 DUP4 ADD MSTORE POP PUSH1 0x20 PUSH2 0xB69 DUP5 DUP3 DUP6 ADD PUSH2 0xB10 JUMP JUMPDEST PUSH1 0x20 DUP4 ADD MSTORE POP PUSH1 0x40 PUSH2 0xB7D DUP5 DUP3 DUP6 ADD PUSH2 0xAB2 JUMP JUMPDEST PUSH1 0x40 DUP4 ADD MSTORE POP SWAP3 SWAP2 POP POP JUMP JUMPDEST PUSH1 0x0 PUSH2 0xB9C PUSH2 0xB97 DUP5 PUSH2 0xA65 JUMP JUMPDEST PUSH2 0xA4A JUMP JUMPDEST SWAP1 POP DUP1 DUP4 DUP3 MSTORE PUSH1 0x20 DUP3 ADD SWAP1 POP PUSH1 0x60 DUP5 MUL DUP4 ADD DUP6 DUP2 GT ISZERO PUSH2 0xBBF JUMPI PUSH2 0xBBE PUSH2 0xA91 JUMP JUMPDEST JUMPDEST DUP4 JUMPDEST DUP2 DUP2 LT ISZERO PUSH2 0xBE8 JUMPI DUP1 PUSH2 0xBD4 DUP9 DUP3 PUSH2 0xB25 JUMP JUMPDEST DUP5 MSTORE PUSH1 0x20 DUP5 ADD SWAP4 POP POP PUSH1 0x60 DUP2 ADD SWAP1 POP PUSH2 0xBC1 JUMP JUMPDEST POP POP POP SWAP4 SWAP3 POP POP POP JUMP JUMPDEST PUSH1 0x0 DUP3 PUSH1 0x1F DUP4 ADD SLT PUSH2 0xC07 JUMPI PUSH2 0xC06 PUSH2 0x9D4 JUMP JUMPDEST JUMPDEST DUP2 CALLDATALOAD PUSH2 0xC17 DUP5 DUP3 PUSH1 0x20 DUP7 ADD PUSH2 0xB89 JUMP JUMPDEST SWAP2 POP POP SWAP3 SWAP2 POP POP JUMP JUMPDEST PUSH1 0x0 PUSH1 0x20 DUP3 DUP5 SUB SLT ISZERO PUSH2 0xC36 JUMPI PUSH2 0xC35 PUSH2 0x9CA JUMP JUMPDEST JUMPDEST PUSH1 0x0 DUP3 ADD CALLDATALOAD PUSH8 0xFFFFFFFFFFFFFFFF DUP2 GT ISZERO PUSH2 0xC54 JUMPI PUSH2 0xC53 PUSH2 0x9CF JUMP JUMPDEST JUMPDEST PUSH2 0xC60 DUP5 DUP3 DUP6 ADD PUSH2 0xBF2 JUMP JUMPDEST SWAP2 POP POP SWAP3 SWAP2 POP POP JUMP JUMPDEST PUSH1 0x0 DUP3 DUP3 MSTORE PUSH1 0x20 DUP3 ADD SWAP1 POP SWAP3 SWAP2 POP POP JUMP JUMPDEST PUSH32 0x4D7573742073656E6420736F6D65204544550000000000000000000000000000 PUSH1 0x0 DUP3 ADD MSTORE POP JUMP JUMPDEST PUSH1 0x0 PUSH2 0xCB0 PUSH1 0x12 DUP4 PUSH2 0xC69 JUMP JUMPDEST SWAP2 POP PUSH2 0xCBB DUP3 PUSH2 0xC7A JUMP JUMPDEST PUSH1 0x20 DUP3 ADD SWAP1 POP SWAP2 SWAP1 POP JUMP JUMPDEST PUSH1 0x0 PUSH1 0x20 DUP3 ADD SWAP1 POP DUP2 DUP2 SUB PUSH1 0x0 DUP4 ADD MSTORE PUSH2 0xCDF DUP2 PUSH2 0xCA3 JUMP JUMPDEST SWAP1 POP SWAP2 SWAP1 POP JUMP JUMPDEST PUSH32 0x4974206973206E6F74206120706572696F6420666F72206465706F7369747300 PUSH1 0x0 DUP3 ADD MSTORE POP JUMP JUMPDEST PUSH1 0x0 PUSH2 0xD1C PUSH1 0x1F DUP4 PUSH2 0xC69 JUMP JUMPDEST SWAP2 POP PUSH2 0xD27 DUP3 PUSH2 0xCE6 JUMP JUMPDEST PUSH1 0x20 DUP3 ADD SWAP1 POP SWAP2 SWAP1 POP JUMP JUMPDEST PUSH1 0x0 PUSH1 0x20 DUP3 ADD SWAP1 POP DUP2 DUP2 SUB PUSH1 0x0 DUP4 ADD MSTORE PUSH2 0xD4B DUP2 PUSH2 0xD0F JUMP JUMPDEST SWAP1 POP SWAP2 SWAP1 POP JUMP JUMPDEST PUSH32 0x4E487B7100000000000000000000000000000000000000000000000000000000 PUSH1 0x0 MSTORE PUSH1 0x11 PUSH1 0x4 MSTORE PUSH1 0x24 PUSH1 0x0 REVERT JUMPDEST PUSH1 0x0 PUSH2 0xD8C DUP3 PUSH2 0x98C JUMP JUMPDEST SWAP2 POP PUSH2 0xD97 DUP4 PUSH2 0x98C JUMP JUMPDEST SWAP3 POP DUP3 DUP3 ADD SWAP1 POP DUP1 DUP3 GT ISZERO PUSH2 0xDAF JUMPI PUSH2 0xDAE PUSH2 0xD52 JUMP JUMPDEST JUMPDEST SWAP3 SWAP2 POP POP JUMP JUMPDEST PUSH32 0x4973206E6F74206F776E65720000000000000000000000000000000000000000 PUSH1 0x0 DUP3 ADD MSTORE POP JUMP JUMPDEST PUSH1 0x0 PUSH2 0xDEB PUSH1 0xC DUP4 PUSH2 0xC69 JUMP JUMPDEST SWAP2 POP PUSH2 0xDF6 DUP3 PUSH2 0xDB5 JUMP JUMPDEST PUSH1 0x20 DUP3 ADD SWAP1 POP SWAP2 SWAP1 POP JUMP JUMPDEST PUSH1 0x0 PUSH1 0x20 DUP3 ADD SWAP1 POP DUP2 DUP2 SUB PUSH1 0x0 DUP4 ADD MSTORE PUSH2 0xE1A DUP2 PUSH2 0xDDE JUMP JUMPDEST SWAP1 POP SWAP2 SWAP1 POP JUMP JUMPDEST PUSH32 0x5769746864726177696E6720697320706F737369626C65206166746572207072 PUSH1 0x0 DUP3 ADD MSTORE PUSH32 0x6F6772616D20697320636C6F7365640000000000000000000000000000000000 PUSH1 0x20 DUP3 ADD MSTORE POP JUMP JUMPDEST PUSH1 0x0 PUSH2 0xE7D PUSH1 0x2F DUP4 PUSH2 0xC69 JUMP JUMPDEST SWAP2 POP PUSH2 0xE88 DUP3 PUSH2 0xE21 JUMP JUMPDEST PUSH1 0x40 DUP3 ADD SWAP1 POP SWAP2 SWAP1 POP JUMP JUMPDEST PUSH1 0x0 PUSH1 0x20 DUP3 ADD SWAP1 POP DUP2 DUP2 SUB PUSH1 0x0 DUP4 ADD MSTORE PUSH2 0xEAC DUP2 PUSH2 0xE70 JUMP JUMPDEST SWAP1 POP SWAP2 SWAP1 POP JUMP JUMPDEST PUSH1 0x0 DUP2 SWAP1 POP SWAP3 SWAP2 POP POP JUMP JUMPDEST POP JUMP JUMPDEST PUSH1 0x0 PUSH2 0xECE PUSH1 0x0 DUP4 PUSH2 0xEB3 JUMP JUMPDEST SWAP2 POP PUSH2 0xED9 DUP3 PUSH2 0xEBE JUMP JUMPDEST PUSH1 0x0 DUP3 ADD SWAP1 POP SWAP2 SWAP1 POP JUMP JUMPDEST PUSH1 0x0 PUSH2 0xEEF DUP3 PUSH2 0xEC1 JUMP JUMPDEST SWAP2 POP DUP2 SWAP1 POP SWAP2 SWAP1 POP JUMP JUMPDEST PUSH32 0x4661696C656420746F2077697468647261772066756E64730000000000000000 PUSH1 0x0 DUP3 ADD MSTORE POP JUMP JUMPDEST PUSH1 0x0 PUSH2 0xF2F PUSH1 0x18 DUP4 PUSH2 0xC69 JUMP JUMPDEST SWAP2 POP PUSH2 0xF3A DUP3 PUSH2 0xEF9 JUMP JUMPDEST PUSH1 0x20 DUP3 ADD SWAP1 POP SWAP2 SWAP1 POP JUMP JUMPDEST PUSH1 0x0 PUSH1 0x20 DUP3 ADD SWAP1 POP DUP2 DUP2 SUB PUSH1 0x0 DUP4 ADD MSTORE PUSH2 0xF5E DUP2 PUSH2 0xF22 JUMP JUMPDEST SWAP1 POP SWAP2 SWAP1 POP JUMP JUMPDEST PUSH32 0x546869732050726F6772616D20697320446F6E65000000000000000000000000 PUSH1 0x0 DUP3 ADD MSTORE POP JUMP JUMPDEST PUSH1 0x0 PUSH2 0xF9B PUSH1 0x14 DUP4 PUSH2 0xC69 JUMP JUMPDEST SWAP2 POP PUSH2 0xFA6 DUP3 PUSH2 0xF65 JUMP JUMPDEST PUSH1 0x20 DUP3 ADD SWAP1 POP SWAP2 SWAP1 POP JUMP JUMPDEST PUSH1 0x0 PUSH1 0x20 DUP3 ADD SWAP1 POP DUP2 DUP2 SUB PUSH1 0x0 DUP4 ADD MSTORE PUSH2 0xFCA DUP2 PUSH2 0xF8E JUMP JUMPDEST SWAP1 POP SWAP2 SWAP1 POP JUMP JUMPDEST PUSH32 0x4E487B7100000000000000000000000000000000000000000000000000000000 PUSH1 0x0 MSTORE PUSH1 0x32 PUSH1 0x4 MSTORE PUSH1 0x24 PUSH1 0x0 REVERT JUMPDEST PUSH32 0x496E73756666696369656E7420636F6E74726163742062616C616E6365000000 PUSH1 0x0 DUP3 ADD MSTORE POP JUMP JUMPDEST PUSH1 0x0 PUSH2 0x1036 PUSH1 0x1D DUP4 PUSH2 0xC69 JUMP JUMPDEST SWAP2 POP PUSH2 0x1041 DUP3 PUSH2 0x1000 JUMP JUMPDEST PUSH1 0x20 DUP3 ADD SWAP1 POP SWAP2 SWAP1 POP JUMP JUMPDEST PUSH1 0x0 PUSH1 0x20 DUP3 ADD SWAP1 POP DUP2 DUP2 SUB PUSH1 0x0 DUP4 ADD MSTORE PUSH2 0x1065 DUP2 PUSH2 0x1029 JUMP JUMPDEST SWAP1 POP SWAP2 SWAP1 POP JUMP JUMPDEST PUSH32 0x4661696C656420746F2073656E64204544550000000000000000000000000000 PUSH1 0x0 DUP3 ADD MSTORE POP JUMP JUMPDEST PUSH1 0x0 PUSH2 0x10A2 PUSH1 0x12 DUP4 PUSH2 0xC69 JUMP JUMPDEST SWAP2 POP PUSH2 0x10AD DUP3 PUSH2 0x106C JUMP JUMPDEST PUSH1 0x20 DUP3 ADD SWAP1 POP SWAP2 SWAP1 POP JUMP JUMPDEST PUSH1 0x0 PUSH1 0x20 DUP3 ADD SWAP1 POP DUP2 DUP2 SUB PUSH1 0x0 DUP4 ADD MSTORE PUSH2 0x10D1 DUP2 PUSH2 0x1095 JUMP JUMPDEST SWAP1 POP SWAP2 SWAP1 POP JUMP JUMPDEST PUSH1 0x0 PUSH2 0x10E3 DUP3 PUSH2 0x98C JUMP JUMPDEST SWAP2 POP PUSH2 0x10EE DUP4 PUSH2 0x98C JUMP JUMPDEST SWAP3 POP DUP3 DUP3 SUB SWAP1 POP DUP2 DUP2 GT ISZERO PUSH2 0x1106 JUMPI PUSH2 0x1105 PUSH2 0xD52 JUMP JUMPDEST JUMPDEST SWAP3 SWAP2 POP POP JUMP INVALID LOG2 PUSH5 0x6970667358 0x22 SLT KECCAK256 0x24 JUMP 0xAA 0xF9 0xB9 INVALID 0x2F 0xB4 PUSH4 0xEE37FE9F OR 0xBB DUP2 0xD0 DUP6 0x22 0xFB 0xB6 CODESIZE CALLDATASIZE PUSH25 0x6B0B2480181D2F264736F6C634300081A0033000000000000 "},"methodIdentifiers":{"deposit()":"d0e30db0","distributeRewards((uint256,address,uint256)[])":"e476322d","getBalance()":"12065fe0","setStatus()":"c0336629","totalFunds()":"968ed600","withdraw()":"3ccfd60b"}}}}}